:100000002FC07BC148C047C046C045C044C043C0A4
:1000100042C041C040C03FC03EC03DC03CC03BC0EC
:100020003AC004030904160341007200640075001D
:1000300069006E006F00490053005000120110016A
:10004000FF000008412349000401000200010902E9
:10005000120001010080140904000000FF000000EC
:1000600011241FBECFE5D1E0DEBFCDBF10E0A0E67A
:10007000B0E0EEE2F8E002C005900D92A236B107C2
:10008000D9F710E0A2E6B0E001C01D92A53AB10791
:10009000E1F7B0D3CAC3B4CF1F93CF93DF9360917E
:1000A0008B00635067FD9CC080918800CCE0D0E05D
:1000B000C81BD109C157DF4F809187008D3209F0ED
:1000C0007DC0683009F08AC083EC80937B008AE5AC
:1000D00080936000109262008881807631F0CE01BA
:1000E00087D28F3F09F459C05FC09A811092840073
:1000F0008981882331F41092850024E830E082E081
:1001000047C0853019F490938C0038C0863069F56B
:100110008B81813019F48CE390E004C0823041F48B
:100120008EE490E090938A008093890082E119C068
:100130008330B1F4992341F482E290E090938A00F5
:100140008093890084E00DC0913051F0923041F4E9
:1001500086E290E090938A008093890086E101C056
:1001600080E090E4909362001FC0883059F089309D
:1001700019F490938E0002C08A3039F024E830E000
:1001800080E006C02EE830E002C024E830E081E0E4
:1001900030938A002093890007C0988197FD8E8153
:1001A00090E89093620007C09F81992321F49E817B
:1001B000981708F4892F8093610010C08091620025
:1001C00087FF0CC0CE01C9D28F3F21F48EE180930E
:1001D000600004C0882311F01092610010928B001F
:1001E0008091600084FF5BC0809161008F3F09F4C3
:1001F00056C0182F893008F018E0811B80936100E9
:1002000080917B0098E8892780937B001123B1F1CE
:100210008091620087FF08C08CE790E0612F7CD25C
:10022000182F8930B0F52AC02091890030918A00BA
:10023000412F415086FF0EC050E0EA01C358DF4F06
:10024000F901ACE7B0E084918D933196AC17BD070E
:10025000D1F70CC0D90150E0CA0183589F4FECE799
:10026000F0E06D916193E817F907D9F74F5F5F4FA1
:10027000420F531F50938A00409389008CE790E00F
:10028000612F37D01C5F1C3041F08FEF80936100ED
:1002900004C08FEF809361001EE11093600084E141
:1002A00099B3917831F48150D9F710928C00109263
:1002B0008600DF91CF911F91089585B7826085BF39
:1002C0008BB780648BBF0895A82FB92F80E090E092
:1002D00041E050EA609530E009C02D918227979562
:1002E000879510F084279527305EC8F36F5FA8F3D9
:1002F0000895EADF8D939D930895CF93CFB7CF9361
:10030000C395C89BE9F7C89B09C0C89B07C0C89B99
:1003100005C0C89B03C0C89B01C0A1C0DF93C091AA
:100320008800DD27C157DF4FC89B02C0DF91EBCFAC
:100330002F930F931F9309B32FEF00FB20F94F93D7
:100340003F9319B34FEF012700FB21F93BE031C088
:100350004E7F012F19B3216028C0102F4D7F2260DE
:10036000000009B329C04B7F2460012F000019B39E
:100370002BC019B3477F28602AC04F7E09B3206184
:100380002CC04F7D19B320622FC04F7B09B320646E
:1003900032C0422709B349934FEF0000102710FBEA
:1003A00020F919B31178C9F1297F91F2012700FBD7
:1003B00021F909B3237F89F2315058F1102710FB3E
:1003C00022F919B3277E79F2012700FB23F92F7C4C
:1003D00081F209B3102710FB24F92F7971F200C0C4
:1003E00019B3012700FB25F92F7359F200C009B397
:1003F000102710FB26F9223040F200C019B3012764
:1004000000FB27F9243028F64F77206819B3000045
:10041000F9CF10E41ABF002717C03B503195C31B1A
:10042000D04010E41ABF0881033CE9F00B34D9F046
:10043000209186001981110F1213EDCF093641F179
:100440000D3211F0013E39F700938D003F914F912D
:100450001F910F912F91DF91CAB7C6FD51CFCF9158
:10046000CFBFCF91189520918D00222379F3109161
:100470008B00112311F5343012F130938B0020934F
:100480008700109188003BE0311B3093880017C033
:1004900000918B0001308CF40AE53091600034FD4E
:1004A00010C000936000CBE7D0E00FC02795A8F400
:1004B0005150A9F4220F0000F9CF4AE503C042EDE4
:1004C00001C0432FC4E1D0E032E01AB31168D89ADA
:1004D0001ABB0BB320E411E85F93012756E00BBB76
:1004E000279520F4515021F4220FF9CF012756E02F
:1004F00000003B5A0BBBD0F2279528F4515029F449
:10050000220F0000F9CF012756E027950BBB20F4FE
:10051000515021F4220FF9CF012756E029913323BE
:100520000BBB21F60E7710918C00110FC651D040F5
:100530000BBB11F01093860010E41ABF01601AB3D0
:100540001E77402F4E775F9100C000C00BBB1ABBD7
:100550004BBB7CCFFC0150916D00862F972FDC01A7
:1005600094E0619128E030E040E880E0742F762349
:1005700009F0DE9A052E00C000000A94E1F7DC9A2B
:10058000052E00C000000A94E1F7880FCD998F5F17
:10059000DE98DC9846952150304041F78D9391507C
:1005A00001F7089580917000909171009C012F5F78
:1005B0003F4F30937100209370002091720027FF0D
:1005C00002C0880F991F2093630080FF03C028603A
:1005D00020936300292F2695209364009695879594
:1005E0008093650083E690E067E670E0B3DF0895EE
:1005F000CF93DF93FC014181442379F4A3E7B0E07A
:1006000081918D9380E0AB37B807D1F71897B093FD
:100610008A00A093890088E07CC06481A62FB0E0A6
:10062000413059F48C918093730083E790E090936C
:100630008A008093890081E06CC05281423011F4BD
:100640005C9366C00296752F777021E030E001C0A0
:10065000220F7A95EAF7433021F420958C9182237A
:1006600004C0443021F48C91822B8C9351C04530CE
:1006700079F450936D00662311F492E001C09AE082
:100680008AB38A658ABB8BB3857A892B8BBB40C0C2
:10069000463041F4DB9A8BB3857A8BBB8AB3857A7B
:1006A0008ABB36C02BB3222399F1473051F4C3E7FC
:1006B000D0E0BE014FDFD0938A00C093890084E070
:1006C00028C0483031F450936B00838180936C00D4
:1006D0001FC0848195819093710080937000493090
:1006E00011F480E211C04B3011F480EA0DC0828118
:1006F000938190936F0080936E004A3011F480E4F0
:1007000003C04C3029F480EC809372008FEF01C05D
:1007100080E0DF91CF910895EF92FF921F93DF93D6
:10072000CF930F92CDB7DEB7182F862F612F792F79
:100730007B0108C0898336DF90916A00F7019193AD
:100740007F0189819E2D911B9817A0F30F90CF9167
:10075000DF911F91FF90EF900895DF92EF92FF924B
:100760000F931F93CF93DF93F82EE62E0F2D192FA3
:1007700050E6D52E32C0F80181918F01809366003A
:1007800011DF809163008D2580936300C0E0D0E08D
:100790001DC083E690E067E670E0DCDE80916A00D1
:1007A00090916600891741F490916B00891721F0B0
:1007B00090916C00891789F420916D0030E045E03C
:1007C000220F331F4A95E1F7C20FD31F20916E000D
:1007D00030916F00C217D307E0F2802F8F198E156A
:1007E00050F281E0DF91CF911F910F91FF90EF9038
:1007F000DF9008952EE088E190E00FB6F894A89578
:1008000081BD0FBE21BD59DDD09A80E007C0A895FB
:10081000E7EBFBE03197F1F700C000008150B9F73A
:0E082000D0987894A89538DCFDCFF894FFCFDF
:02082E005AFF6F
:00000001FF
